{
  "_format": "hh-sol-artifact-1",
  "contractName": "Voting",
  "sourceName": "contracts/Voting.sol",
  "abi": [
    {
      "inputs": [
        {
          "internalType": "string[]",
          "name": "_candidateNames",
          "type": "string[]"
        },
        {
          "internalType": "uint256",
          "name": "_durationInMinutes",
          "type": "uint256"
        }
      ],
      "stateMutability": "nonpayable",
      "type": "constructor"
    },
    {
      "inputs": [],
      "name": "CAP",
      "outputs": [
        {
          "internalType": "uint256",
          "name": "",
          "type": "uint256"
        }
      ],
      "stateMutability": "view",
      "type": "function"
    },
    {
      "inputs": [
        {
          "internalType": "string",
          "name": "_name",
          "type": "string"
        }
      ],
      "name": "addCandidate",
      "outputs": [],
      "stateMutability": "nonpayable",
      "type": "function"
    },
    {
      "inputs": [
        {
          "internalType": "address",
          "name": "_validator",
          "type": "address"
        }
      ],
      "name": "addValidator",
      "outputs": [],
      "stateMutability": "nonpayable",
      "type": "function"
    },
    {
      "inputs": [
        {
          "internalType": "uint256",
          "name": "",
          "type": "uint256"
        }
      ],
      "name": "candidates",
      "outputs": [
        {
          "internalType": "string",
          "name": "name",
          "type": "string"
        },
        {
          "internalType": "uint256",
          "name": "voteCount",
          "type": "uint256"
        },
        {
          "internalType": "bool",
          "name": "finalized",
          "type": "bool"
        }
      ],
      "stateMutability": "view",
      "type": "function"
    },
    {
      "inputs": [
        {
          "internalType": "uint256",
          "name": "_candidateIndex",
          "type": "uint256"
        }
      ],
      "name": "confirmVote",
      "outputs": [],
      "stateMutability": "nonpayable",
      "type": "function"
    },
    {
      "inputs": [],
      "name": "getAllVotesOfCandidates",
      "outputs": [
        {
          "components": [
            {
              "internalType": "string",
              "name": "name",
              "type": "string"
            },
            {
              "internalType": "uint256",
              "name": "voteCount",
              "type": "uint256"
            },
            {
              "internalType": "bool",
              "name": "finalized",
              "type": "bool"
            }
          ],
          "internalType": "struct Voting.Candidate[]",
          "name": "",
          "type": "tuple[]"
        }
      ],
      "stateMutability": "view",
      "type": "function"
    },
    {
      "inputs": [
        {
          "internalType": "uint256",
          "name": "_candidateIndex",
          "type": "uint256"
        }
      ],
      "name": "getConfirmations",
      "outputs": [
        {
          "internalType": "uint256",
          "name": "",
          "type": "uint256"
        }
      ],
      "stateMutability": "view",
      "type": "function"
    },
    {
      "inputs": [],
      "name": "getRemainingTime",
      "outputs": [
        {
          "internalType": "uint256",
          "name": "",
          "type": "uint256"
        }
      ],
      "stateMutability": "view",
      "type": "function"
    },
    {
      "inputs": [],
      "name": "getVotingStatus",
      "outputs": [
        {
          "internalType": "bool",
          "name": "",
          "type": "bool"
        }
      ],
      "stateMutability": "view",
      "type": "function"
    },
    {
      "inputs": [
        {
          "internalType": "address",
          "name": "_validator",
          "type": "address"
        }
      ],
      "name": "getVotingWeight",
      "outputs": [
        {
          "internalType": "uint256",
          "name": "",
          "type": "uint256"
        }
      ],
      "stateMutability": "view",
      "type": "function"
    },
    {
      "inputs": [],
      "name": "owner",
      "outputs": [
        {
          "internalType": "address",
          "name": "",
          "type": "address"
        }
      ],
      "stateMutability": "view",
      "type": "function"
    },
    {
      "inputs": [],
      "name": "stake",
      "outputs": [],
      "stateMutability": "payable",
      "type": "function"
    },
    {
      "inputs": [
        {
          "internalType": "address",
          "name": "",
          "type": "address"
        }
      ],
      "name": "stakes",
      "outputs": [
        {
          "internalType": "uint256",
          "name": "",
          "type": "uint256"
        }
      ],
      "stateMutability": "view",
      "type": "function"
    },
    {
      "inputs": [
        {
          "internalType": "uint256",
          "name": "",
          "type": "uint256"
        }
      ],
      "name": "validatorList",
      "outputs": [
        {
          "internalType": "address",
          "name": "",
          "type": "address"
        }
      ],
      "stateMutability": "view",
      "type": "function"
    },
    {
      "inputs": [
        {
          "internalType": "address",
          "name": "",
          "type": "address"
        }
      ],
      "name": "validators",
      "outputs": [
        {
          "internalType": "bool",
          "name": "",
          "type": "bool"
        }
      ],
      "stateMutability": "view",
      "type": "function"
    },
    {
      "inputs": [
        {
          "internalType": "uint256",
          "name": "_candidateIndex",
          "type": "uint256"
        }
      ],
      "name": "vote",
      "outputs": [],
      "stateMutability": "nonpayable",
      "type": "function"
    },
    {
      "inputs": [
        {
          "internalType": "uint256",
          "name": "",
          "type": "uint256"
        },
        {
          "internalType": "uint256",
          "name": "",
          "type": "uint256"
        }
      ],
      "name": "voteConfirmations",
      "outputs": [
        {
          "internalType": "address",
          "name": "",
          "type": "address"
        }
      ],
      "stateMutability": "view",
      "type": "function"
    },
    {
      "inputs": [
        {
          "internalType": "address",
          "name": "",
          "type": "address"
        }
      ],
      "name": "voters",
      "outputs": [
        {
          "internalType": "bool",
          "name": "",
          "type": "bool"
        }
      ],
      "stateMutability": "view",
      "type": "function"
    },
    {
      "inputs": [],
      "name": "votingEnd",
      "outputs": [
        {
          "internalType": "uint256",
          "name": "",
          "type": "uint256"
        }
      ],
      "stateMutability": "view",
      "type": "function"
    },
    {
      "inputs": [],
      "name": "votingStart",
      "outputs": [
        {
          "internalType": "uint256",
          "name": "",
          "type": "uint256"
        }
      ],
      "stateMutability": "view",
      "type": "function"
    }
  ],
  "bytecode": "0x6080604052678ac7230489e800006007553480156200001d57600080fd5b50604051620026ec380380620026ec83398181016040528101906200004391906200050f565b33600160006101000a81548173ffffffffffffffffffffffffffffffffffffffff021916908373ffffffffffffffffffffffffffffffffffffffff16021790555042600881905550603c816200009a9190620005a4565b42620000a7919062000605565b60098190555060005b8251811015620001825760006040518060600160405280858481518110620000dd57620000dc62000662565b5b602002602001015181526020016000815260200160001515815250908060018154018082558091505060019003906000526020600020906003020160009091909190915060008201518160000190805190602001906200013f9291906200018b565b506020820151816001015560408201518160020160006101000a81548160ff02191690831515021790555050508080620001799062000691565b915050620000b0565b50505062000744565b82805462000199906200070e565b90600052602060002090601f016020900481019282620001bd576000855562000209565b82601f10620001d857805160ff191683800117855562000209565b8280016001018555821562000209579182015b8281111562000208578251825591602001919060010190620001eb565b5b5090506200021891906200021c565b5090565b5b80821115620002375760008160009055506001016200021d565b5090565b6000604051905090565b600080fd5b600080fd5b600080fd5b6000601f19601f8301169050919050565b7f4e487b7100000000000000000000000000000000000000000000000000000000600052604160045260246000fd5b6200029f8262000254565b810181811067ffffffffffffffff82111715620002c157620002c062000265565b5b80604052505050565b6000620002d66200023b565b9050620002e4828262000294565b919050565b600067ffffffffffffffff82111562000307576200030662000265565b5b602082029050602081019050919050565b600080fd5b600080fd5b600067ffffffffffffffff82111562000340576200033f62000265565b5b6200034b8262000254565b9050602081019050919050565b60005b83811015620003785780820151818401526020810190506200035b565b8381111562000388576000848401525b50505050565b6000620003a56200039f8462000322565b620002ca565b905082815260208101848484011115620003c457620003c36200031d565b5b620003d184828562000358565b509392505050565b600082601f830112620003f157620003f06200024f565b5b8151620004038482602086016200038e565b91505092915050565b6000620004236200041d84620002e9565b620002ca565b9050808382526020820190506020840283018581111562000449576200044862000318565b5b835b818110156200049757805167ffffffffffffffff8111156200047257620004716200024f565b5b808601620004818982620003d9565b855260208501945050506020810190506200044b565b5050509392505050565b600082601f830112620004b957620004b86200024f565b5b8151620004cb8482602086016200040c565b91505092915050565b6000819050919050565b620004e981620004d4565b8114620004f557600080fd5b50565b6000815190506200050981620004de565b92915050565b6000806040838503121562000529576200052862000245565b5b600083015167ffffffffffffffff8111156200054a57620005496200024a565b5b6200055885828601620004a1565b92505060206200056b85828601620004f8565b9150509250929050565b7f4e487b7100000000000000000000000000000000000000000000000000000000600052601160045260246000fd5b6000620005b182620004d4565b9150620005be83620004d4565b9250817fffffffffffffffffffffffffffffffffffffffffffffffffffffffffffffffff0483118215151615620005fa57620005f962000575565b5b828202905092915050565b60006200061282620004d4565b91506200061f83620004d4565b9250827fffffffffffffffffffffffffffffffffffffffffffffffffffffffffffffffff0382111562000657576200065662000575565b5b828201905092915050565b7f4e487b7100000000000000000000000000000000000000000000000000000000600052603260045260246000fd5b60006200069e82620004d4565b91507fffffffffffffffffffffffffffffffffffffffffffffffffffffffffffffffff821415620006d457620006d362000575565b5b600182019050919050565b7f4e487b7100000000000000000000000000000000000000000000000000000000600052602260045260246000fd5b600060028204905060018216806200072757607f821691505b602082108114156200073e576200073d620006df565b5b50919050565b611f9880620007546000396000f3fe60806040526004361061011f5760003560e01c80638da5cb5b116100a0578063b5dc40c311610064578063b5dc40c3146103dc578063d5da24b914610419578063ec81b48314610456578063efb98bcf14610481578063fa52c7d8146104ac5761011f565b80638da5cb5b146102e357806390a9ab901461030e578063a3ec138d14610339578063aa457faf14610376578063b048e0561461039f5761011f565b8063462e91ec116100e7578063462e91ec146101fe5780634b86f963146102275780634d238c8e14610264578063581c281c1461028d57806385a38635146102b85761011f565b80630121b93f14610124578063101158af1461014d57806316934fc4146101785780633477ee2e146101b55780633a4b66f1146101f4575b600080fd5b34801561013057600080fd5b5061014b60048036038101906101469190611437565b6104e9565b005b34801561015957600080fd5b50610162610793565b60405161016f9190611473565b60405180910390f35b34801561018457600080fd5b5061019f600480360381019061019a91906114ec565b610799565b6040516101ac9190611473565b60405180910390f35b3480156101c157600080fd5b506101dc60048036038101906101d79190611437565b6107b1565b6040516101eb939291906115cd565b60405180910390f35b6101fc610880565b005b34801561020a57600080fd5b5061022560048036038101906102209190611740565b610964565b005b34801561023357600080fd5b5061024e60048036038101906102499190611789565b610a8a565b60405161025b91906117d8565b60405180910390f35b34801561027057600080fd5b5061028b600480360381019061028691906114ec565b610ad8565b005b34801561029957600080fd5b506102a2610cb3565b6040516102af91906117f3565b60405180910390f35b3480156102c457600080fd5b506102cd610ccd565b6040516102da9190611473565b60405180910390f35b3480156102ef57600080fd5b506102f8610cd3565b60405161030591906117d8565b60405180910390f35b34801561031a57600080fd5b50610323610cf9565b6040516103309190611988565b60405180910390f35b34801561034557600080fd5b50610360600480360381019061035b91906114ec565b610e0f565b60405161036d91906117f3565b60405180910390f35b34801561038257600080fd5b5061039d60048036038101906103989190611437565b610e2f565b005b3480156103ab57600080fd5b506103c660048036038101906103c19190611437565b611158565b6040516103d391906117d8565b60405180910390f35b3480156103e857600080fd5b5061040360048036038101906103fe9190611437565b611197565b6040516104109190611473565b60405180910390f35b34801561042557600080fd5b50610440600480360381019061043b91906114ec565b6111b7565b60405161044d9190611473565b60405180910390f35b34801561046257600080fd5b5061046b6112dd565b6040516104789190611473565b60405180910390f35b34801561048d57600080fd5b506104966112e3565b6040516104a39190611473565b60405180910390f35b3480156104b857600080fd5b506104d360048036038101906104ce91906114ec565b61132a565b6040516104e091906117f3565b60405180910390f35b60085442101580156104fc575060095442105b61053b576040517f08c379a0000000000000000000000000000000000000000000000000000000008152600401610532906119f6565b60405180910390fd5b600260003373ffffffffffffffffffffffffffffffffffffffff1673ffffffffffffffffffffffffffffffffffffffff16815260200190815260200160002060009054906101000a900460ff16156105c8576040517f08c379a00000000000000000000000000000000000000000000000000000000081526004016105bf90611a62565b60405180910390fd5b600080549050811061060f576040517f08c379a000000000000000000000000000000000000000000000000000000000815260040161060690611ace565b60405180910390fd5b600060019050600360003373ffffffffffffffffffffffffffffffffffffffff1673ffffffffffffffffffffffffffffffffffffffff16815260200190815260200160002060009054906101000a900460ff16156106fb57600754600660003373ffffffffffffffffffffffffffffffffffffffff1673ffffffffffffffffffffffffffffffffffffffff16815260200190815260200160002054116106f457600660003373ffffffffffffffffffffffffffffffffffffffff1673ffffffffffffffffffffffffffffffffffffffff168152602001908152602001600020546106f8565b6007545b90505b80600083815481106107105761070f611aee565b5b906000526020600020906003020160010160008282546107309190611b4c565b925050819055506001600260003373ffffffffffffffffffffffffffffffffffffffff1673ffffffffffffffffffffffffffffffffffffffff16815260200190815260200160002060006101000a81548160ff0219169083151502179055505050565b60085481565b60066020528060005260406000206000915090505481565b600081815481106107c157600080fd5b90600052602060002090600302016000915090508060000180546107e490611bd1565b80601f016020809104026020016040519081016040528092919081815260200182805461081090611bd1565b801561085d5780601f106108325761010080835404028352916020019161085d565b820191906000526020600020905b81548152906001019060200180831161084057829003601f168201915b5050505050908060010154908060020160009054906101000a900460ff16905083565b600360003373ffffffffffffffffffffffffffffffffffffffff1673ffffffffffffffffffffffffffffffffffffffff16815260200190815260200160002060009054906101000a900460ff1661090c576040517f08c379a000000000000000000000000000000000000000000000000000000000815260040161090390611c4f565b60405180910390fd5b34600660003373ffffffffffffffffffffffffffffffffffffffff1673ffffffffffffffffffffffffffffffffffffffff168152602001908152602001600020600082825461095b9190611b4c565b92505081905550565b600160009054906101000a900473ffffffffffffffffffffffffffffffffffffffff1673ffffffffffffffffffffffffffffffffffffffff163373ffffffffffffffffffffffffffffffffffffffff16146109f4576040517f08c379a00000000000000000000000000000000000000000000000000000000081526004016109eb90611cbb565b60405180910390fd5b60006040518060600160405280838152602001600081526020016000151581525090806001815401808255809150506001900390600052602060002090600302016000909190919091506000820151816000019080519060200190610a5a92919061134a565b506020820151816001015560408201518160020160006101000a81548160ff021916908315150217905550505050565b60056020528160005260406000208181548110610aa657600080fd5b906000526020600020016000915091509054906101000a900473ffffffffffffffffffffffffffffffffffffffff1681565b600160009054906101000a900473ffffffffffffffffffffffffffffffffffffffff1673ffffffffffffffffffffffffffffffffffffffff163373ffffffffffffffffffffffffffffffffffffffff1614610b68576040517f08c379a0000000000000000000000000000000000000000000000000000000008152600401610b5f90611cbb565b60405180910390fd5b600360008273ffffffffffffffffffffffffffffffffffffffff1673ffffffffffffffffffffffffffffffffffffffff16815260200190815260200160002060009054906101000a900460ff1615610bf5576040517f08c379a0000000000000000000000000000000000000000000000000000000008152600401610bec90611d27565b60405180910390fd5b6001600360008373ffffffffffffffffffffffffffffffffffffffff1673ffffffffffffffffffffffffffffffffffffffff16815260200190815260200160002060006101000a81548160ff0219169083151502179055506004819080600181540180825580915050600190039060005260206000200160009091909190916101000a81548173ffffffffffffffffffffffffffffffffffffffff021916908373ffffffffffffffffffffffffffffffffffffffff16021790555050565b60006008544210158015610cc8575060095442105b905090565b60095481565b600160009054906101000a900473ffffffffffffffffffffffffffffffffffffffff1681565b60606000805480602002602001604051908101604052809291908181526020016000905b82821015610e065783829060005260206000209060030201604051806060016040529081600082018054610d5090611bd1565b80601f0160208091040260200160405190810160405280929190818152602001828054610d7c90611bd1565b8015610dc95780601f10610d9e57610100808354040283529160200191610dc9565b820191906000526020600020905b815481529060010190602001808311610dac57829003601f168201915b50505050508152602001600182015481526020016002820160009054906101000a900460ff16151515158152505081526020019060010190610d1d565b50505050905090565b60026020528060005260406000206000915054906101000a900460ff1681565b600360003373ffffffffffffffffffffffffffffffffffffffff1673ffffffffffffffffffffffffffffffffffffffff16815260200190815260200160002060009054906101000a900460ff16610ebb576040517f08c379a0000000000000000000000000000000000000000000000000000000008152600401610eb290611c4f565b60405180910390fd5b6000805490508110610f02576040517f08c379a0000000000000000000000000000000000000000000000000000000008152600401610ef990611ace565b60405180910390fd5b60008181548110610f1657610f15611aee565b5b906000526020600020906003020160020160009054906101000a900460ff1615610f75576040517f08c379a0000000000000000000000000000000000000000000000000000000008152600401610f6c90611d93565b60405180910390fd5b60005b6005600083815260200190815260200160002080549050811015611067573373ffffffffffffffffffffffffffffffffffffffff16600560008481526020019081526020016000208281548110610fd257610fd1611aee565b5b9060005260206000200160009054906101000a900473ffffffffffffffffffffffffffffffffffffffff1673ffffffffffffffffffffffffffffffffffffffff161415611054576040517f08c379a000000000000000000000000000000000000000000000000000000000815260040161104b90611dff565b60405180910390fd5b808061105f90611e1f565b915050610f78565b5060056000828152602001908152602001600020339080600181540180825580915050600190039060005260206000200160009091909190916101000a81548173ffffffffffffffffffffffffffffffffffffffff021916908373ffffffffffffffffffffffffffffffffffffffff16021790555060026004805490506110ee9190611e68565b600360056000848152602001908152602001600020805490506111119190611e68565b106111555760016000828154811061112c5761112b611aee565b5b906000526020600020906003020160020160006101000a81548160ff0219169083151502179055505b50565b6004818154811061116857600080fd5b906000526020600020016000915054906101000a900473ffffffffffffffffffffffffffffffffffffffff1681565b600060056000838152602001908152602001600020805490509050919050565b6000600360008373ffffffffffffffffffffffffffffffffffffffff1673ffffffffffffffffffffffffffffffffffffffff16815260200190815260200160002060009054906101000a900460ff16611245576040517f08c379a000000000000000000000000000000000000000000000000000000000815260040161123c90611f0e565b60405180910390fd5b600754600660008473ffffffffffffffffffffffffffffffffffffffff1673ffffffffffffffffffffffffffffffffffffffff16815260200190815260200160002054116112d257600660008373ffffffffffffffffffffffffffffffffffffffff1673ffffffffffffffffffffffffffffffffffffffff168152602001908152602001600020546112d6565b6007545b9050919050565b60075481565b600060085442101561130457426008546112fd9190611f2e565b9050611327565b60095442106113165760009050611327565b426009546113249190611f2e565b90505b90565b60036020528060005260406000206000915054906101000a900460ff1681565b82805461135690611bd1565b90600052602060002090601f01602090048101928261137857600085556113bf565b82601f1061139157805160ff19168380011785556113bf565b828001600101855582156113bf579182015b828111156113be5782518255916020019190600101906113a3565b5b5090506113cc91906113d0565b5090565b5b808211156113e95760008160009055506001016113d1565b5090565b6000604051905090565b600080fd5b600080fd5b6000819050919050565b61141481611401565b811461141f57600080fd5b50565b6000813590506114318161140b565b92915050565b60006020828403121561144d5761144c6113f7565b5b600061145b84828501611422565b91505092915050565b61146d81611401565b82525050565b60006020820190506114886000830184611464565b92915050565b600073ffffffffffffffffffffffffffffffffffffffff82169050919050565b60006114b98261148e565b9050919050565b6114c9816114ae565b81146114d457600080fd5b50565b6000813590506114e6816114c0565b92915050565b600060208284031215611502576115016113f7565b5b6000611510848285016114d7565b91505092915050565b600081519050919050565b600082825260208201905092915050565b60005b83811015611553578082015181840152602081019050611538565b83811115611562576000848401525b50505050565b6000601f19601f8301169050919050565b600061158482611519565b61158e8185611524565b935061159e818560208601611535565b6115a781611568565b840191505092915050565b60008115159050919050565b6115c7816115b2565b82525050565b600060608201905081810360008301526115e78186611579565b90506115f66020830185611464565b61160360408301846115be565b949350505050565b600080fd5b600080fd5b7f4e487b7100000000000000000000000000000000000000000000000000000000600052604160045260246000fd5b61164d82611568565b810181811067ffffffffffffffff8211171561166c5761166b611615565b5b80604052505050565b600061167f6113ed565b905061168b8282611644565b919050565b600067ffffffffffffffff8211156116ab576116aa611615565b5b6116b482611568565b9050602081019050919050565b82818337600083830152505050565b60006116e36116de84611690565b611675565b9050828152602081018484840111156116ff576116fe611610565b5b61170a8482856116c1565b509392505050565b600082601f8301126117275761172661160b565b5b81356117378482602086016116d0565b91505092915050565b600060208284031215611756576117556113f7565b5b600082013567ffffffffffffffff811115611774576117736113fc565b5b61178084828501611712565b91505092915050565b600080604083850312156117a05761179f6113f7565b5b60006117ae85828601611422565b92505060206117bf85828601611422565b9150509250929050565b6117d2816114ae565b82525050565b60006020820190506117ed60008301846117c9565b92915050565b600060208201905061180860008301846115be565b92915050565b600081519050919050565b600082825260208201905092915050565b6000819050602082019050919050565b600082825260208201905092915050565b600061185682611519565b611860818561183a565b9350611870818560208601611535565b61187981611568565b840191505092915050565b61188d81611401565b82525050565b61189c816115b2565b82525050565b600060608301600083015184820360008601526118bf828261184b565b91505060208301516118d46020860182611884565b5060408301516118e76040860182611893565b508091505092915050565b60006118fe83836118a2565b905092915050565b6000602082019050919050565b600061191e8261180e565b6119288185611819565b93508360208202850161193a8561182a565b8060005b85811015611976578484038952815161195785826118f2565b945061196283611906565b925060208a0199505060018101905061193e565b50829750879550505050505092915050565b600060208201905081810360008301526119a28184611913565b905092915050565b7f566f74696e67206e6f7420616374697665000000000000000000000000000000600082015250565b60006119e0601183611524565b91506119eb826119aa565b602082019050919050565b60006020820190508181036000830152611a0f816119d3565b9050919050565b7f416c726561647920766f74656400000000000000000000000000000000000000600082015250565b6000611a4c600d83611524565b9150611a5782611a16565b602082019050919050565b60006020820190508181036000830152611a7b81611a3f565b9050919050565b7f496e76616c69642063616e646964617465000000000000000000000000000000600082015250565b6000611ab8601183611524565b9150611ac382611a82565b602082019050919050565b60006020820190508181036000830152611ae781611aab565b9050919050565b7f4e487b7100000000000000000000000000000000000000000000000000000000600052603260045260246000fd5b7f4e487b7100000000000000000000000000000000000000000000000000000000600052601160045260246000fd5b6000611b5782611401565b9150611b6283611401565b9250827fffffffffffffffffffffffffffffffffffffffffffffffffffffffffffffffff03821115611b9757611b96611b1d565b5b828201905092915050565b7f4e487b7100000000000000000000000000000000000000000000000000000000600052602260045260246000fd5b60006002820490506001821680611be957607f821691505b60208210811415611bfd57611bfc611ba2565b5b50919050565b7f4f6e6c792076616c696461746f72000000000000000000000000000000000000600082015250565b6000611c39600e83611524565b9150611c4482611c03565b602082019050919050565b60006020820190508181036000830152611c6881611c2c565b9050919050565b7f4f6e6c79206f776e657200000000000000000000000000000000000000000000600082015250565b6000611ca5600a83611524565b9150611cb082611c6f565b602082019050919050565b60006020820190508181036000830152611cd481611c98565b9050919050565b7f416c72656164792076616c696461746f72000000000000000000000000000000600082015250565b6000611d11601183611524565b9150611d1c82611cdb565b602082019050919050565b60006020820190508181036000830152611d4081611d04565b9050919050565b7f416c72656164792066696e616c697a6564000000000000000000000000000000600082015250565b6000611d7d601183611524565b9150611d8882611d47565b602082019050919050565b60006020820190508181036000830152611dac81611d70565b9050919050565b7f416c726561647920636f6e6669726d6564000000000000000000000000000000600082015250565b6000611de9601183611524565b9150611df482611db3565b602082019050919050565b60006020820190508181036000830152611e1881611ddc565b9050919050565b6000611e2a82611401565b91507fffffffffffffffffffffffffffffffffffffffffffffffffffffffffffffffff821415611e5d57611e5c611b1d565b5b600182019050919050565b6000611e7382611401565b9150611e7e83611401565b9250817fffffffffffffffffffffffffffffffffffffffffffffffffffffffffffffffff0483118215151615611eb757611eb6611b1d565b5b828202905092915050565b7f4e6f7420612076616c696461746f720000000000000000000000000000000000600082015250565b6000611ef8600f83611524565b9150611f0382611ec2565b602082019050919050565b60006020820190508181036000830152611f2781611eeb565b9050919050565b6000611f3982611401565b9150611f4483611401565b925082821015611f5757611f56611b1d565b5b82820390509291505056fea2646970667358221220ba4520ffbd11dbf51195c5cb53256773e1076c8957bf51959211b25b51d60e6964736f6c634300080b0033",
  "linkReferences": {},
  "deployedLinkReferences": {}
}